:020000040800F2
:10000000089A0320F901000865410008973C0008A0
:1000100061410008AD0500081176000800000000ED
:10002000000000000000000000000000D5480008AB
:10003000A307000800000000D7430008E9480008B3
:10004000130200081302000813020008130200083C
:10005000130200081302000813020008130200082C
:10006000130200081302000813020008130200081C
:10007000130200081302000813020008130200080C
:1000800013020008130200081302000813020008FC
:1000900013020008130200081302000813020008EC
:1000A00013020008130200081302000813020008DC
:1000B000BD490008130200081302000813020008DB
:1000C00013020008130200081302000813020008BC
:1000D00013020008130200081302000813020008AC
:1000E000130200081302000813020008130200089C
:1000F000130200081302000813020008130200088C
:10010000130200081302000813020008130200087B
:10011000130200081302000813020008130200086B
:1001200089060008130200081302000813020008E1
:1001300013020008000000000000000000000000A2
:100140000000000000000000000000001302000892
:10015000130200081302000813020008130200082B
:10016000130200081302000813020008130200081B
:1001700013020008694100080000000000000000B0
:1001800013020008130200081302000813020008FB
:100190001302000813020008000000001302000808
:1001A0000000000000000000000000001302000832
:1001B0001302000813020008000000000000000005
:1001C000000000000000000000000000000000002F
:1001D0000000000000000000000000001302000802
:1001E000DFF810D000F08EF800480047B57700081F
:1001F000AFF30080089A032006488047064800476E
:10020000FEE7FEE7FEE7FEE7FEE7FEE7FEE7FEE7C6
:10021000FEE7FEE7A9490008E10100082DE9F05FCB
:100220000546002092469B46884606468146402465
:100230001BE0284641464746224600F053F8534605
:100240005A46C01A914110D311461846224600F072
:100250003AF82D1A67EB01084F462246012000218B
:1002600000F031F817EB00094E41201EA4F1010403
:10027000DFDC484631462A464346BDE8F09F40EA67
:1002800001039B0703D009E008C9121F08C0042A14
:10029000FAD203E011F8013B00F8013B521EF9D2FB
:1002A0007047D2B201E000F8012B491EFBD2704723
:1002B0000022F6E710B513460A4604461946FFF732
:1002C000F0FF204610BD202A04DB203A00FA02F19C
:1002D000002070479140C2F1200320FA03F3194334
:1002E00090407047202A04DB203A21FA02F00021D6
:1002F000704721FA02F3D040C2F120029140084336
:1003000019467047064C074D06E0E06840F00103CF
:1003100094E8070098471034AC42F6D3FFF764FF27
:10032000707D0008907D000870B58C1810F8015B96
:1003300015F0070301D110F8013B2A1106D110F87E
:10034000012B03E010F8016B01F8016B5B1EF9D182
:100350002B0705D40023521E0DD401F8013BFAE708
:1003600010F8013BCB1A921C03E013F8015B01F873
:10037000015B521EF9D5A142D8D3002070BD70B5E3
:100380000546AC6B206C00F0500050BB206C40F474
:10039000007020642068806800F04050E8B9A069CF
:1003A000D8B92068C06A00F4700020B12068806865
:1003B00000F4806088B92068406820F0200021683F
:1003C0004860206C20F480702064206C00F4805021
:1003D00018B9206C40F001002064204600F090FC29
:1003E0000BE0206C00F0100018B1204600F08FFCEC
:1003F00003E0A06BC16C2846884770BD70B5054608
:10040000AC6B40202064606C40F0040060642046C7
:1004100000F07DFC70BD70B50446A56B284600F069
:1004200075FC70BD5849096821F44031574AC2F83B
:1004300004131146D1F8041342681143524A116063
:100440000168496821F480710268516001684A6856
:10045000016942EA0121026851600168496821F09E
:1004600040710268516001684968826811430268FE
:1004700051600168896821F4006102689160016837
:100480008968C268114302689160414A816A914259
:1004900018D00168896821F0706102689160016874
:1004A0008968826A1143026891600168896821F055
:1004B00040510268916001688968C26A114302680C
:1004C00091600BE00168896821F0706102689160B9
:1004D0000168896821F0405102689160016889686B
:1004E00021F002010268916001688A68816942EA2C
:1004F0004101026891602021095CA1B1016849684D
:1005000041F40061026851600168496821F460416A
:100510000268516001684A68416A491E42EA4131F5
:100520000268516005E00168496821F400610268D1
:1005300051600168C96A21F470010268D1620168E2
:10054000CA6A818B491E42EA01510268D162016880
:10055000896821F400710268916001688A6890F8E6
:10056000301042EA4121026891600168896821F4F3
:1005700080610268916001688A68416942EA81216C
:100580000268916070470000042301400020014090
:100590000100000F70B504460D462A462146024868
:1005A00000F078FC70BD00003001002000BFFEE7C5
:1005B0000346042B15D007DC7BB1012B0ED0022B98
:1005C0000DD0032B12D10BE0202B0BD0212B0AD006
:1005D000222B09D0232B09D107E008E007E006E031
:1005E00005E004E003E002E001E000E000BF00BF3E
:1005F000002070470020704710B5002204490548CC
:1006000004F027FD0449034804F014FD002010BD48
:100610003013002054020020300B002070B5044637
:100620000D462146034804F005FD024804F0CEFCC7
:10063000002070BD5402002010B503460C46002176
:10064000084610BD70B504460D4600262A462146D0
:10065000044804F0FEFC034804F0AEFD06463046B4
:1006600070BD00005402002070B504460D462B46B4
:1006700000222146034800F055FD2146014800F0C4
:1006800067FD70BDD801002010B5024800F09CFD48
:1006900010BD0000780100200146087810381823AA
:1006A000B0FBF3F20848805CC865032A05D90868E6
:1006B0006FF30900001D886503E008686FF3090007
:1006C0008865886D70470000507D00080146002055
:1006D0008A6A8B69CBB932B1012A0DD0022A03D0C4
:1006E000032A10D10EE000BFCB6A03F08073B3F190
:1006F000807F00D1012007E0CB6AB3F1C07F00D139
:10070000012001E000E000BF34E08B69B3F5005F39
:100710001AD132B1012A07D0022A03D0032A11D1FB
:100720000AE000BF01200EE0CB6A03F08073B3F152
:10073000807F00D1012006E0CB6AB3F1C07F00D1F9
:10074000012000E000BF15E032B1012A05D0022AE5
:1007500004D0032A0CD103E000BF00BF012008E051
:10076000CB6A03F08073B3F1807F00D1012000E0F9
:1007700000BF00BF704730B50468246824F48024AB
:1007800005682C60046863608468402C04D10468A8
:10079000A2600468E16003E00468A1600468E260AC
:1007A00030BD704772B600BFFEE7000010B50022F2
:1007B00001B909E0012901D10A0205E0022901D1AC
:1007C0000A0201E04FF44072124B1B6823F440739D
:1007D000104C236023461B681343236023461B6889
:1007E00023F0F803236023461B68022444EAC00474
:1007F0002343084C236023461B6843F48033236063
:1008000000BF00BF00BFBFF34F8F00BF00BF00BFDE
:1008100010BD0000103C02400E49096821F44071EF
:100820000C4A11601146096841F00401116011463B
:1008300009684FF4803242EA00221143054A1160F0
:1008400000BF00BF00BFBFF34F8F00BF00BF00BF9E
:1008500070470000103C02400B4A126822F44072BC
:10086000094B1A601A4612681A601A46126842F05A
:1008700001021A60017000BF00BF00BFBFF34F8FBD
:1008800000BF00BF00BF7047103C024010B51149C7
:10089000096821F440710F4C21602146096841F438
:1008A000407121602146096841F001012160026028
:1008B00000BF00BF00BFBFF36F8F00BF00BF00BF0E
:1008C000436000BF00BF00BFBFF34F8F00BF00BF3A
:1008D00000BF10BD103C02400C4A126822F4407266
:1008E0000A4B1A601A46126842F480721A601A465D
:1008F000126842F001021A60018000BF00BF00BF11
:10090000BFF34F8F00BF00BF00BF7047103C0240D5
:100910000C4A126822F440720A4B1A601A46126896
:1009200042F400721A601A46126842F001021A601C
:10093000016000BF00BF00BFBFF34F8F00BF00BF0B
:1009400000BF7047103C02402348006800F00200DE
:1009500028B12248806940F02000204988611E4863
:10096000006800F0100028B11C48806940F01000B9
:100970001A4988611848006800F0200028B117481B
:10098000806940F00800154988611348006800F04C
:10099000400028B11148806940F004000F49886187
:1009A0000D48006800F0800028B10C48806940F0D4
:1009B00002000A4988610848006800F4807028B184
:1009C0000648806940F04000044988614FF4F9709E
:1009D00001490860704700000C3C024038020020CA
:1009E00070B50446002500201449886100F0AEFF70
:1009F000054609E0601C38B124B100F0A7FF401B98
:100A0000A04201D9032070BD0D48006800F4803079
:100A10000028EFD10A48006800F4F97018B1FFF718
:100A200093FF0120EFE70648006800F0010010B1D5
:100A30000120034908600020E5E70000380200209B
:100A40000C3C0240014600201C4A914203D2B1F105
:100A5000006F00D330E01A4A914204D2174A914203
:100A600001D3012028E0174A914204D2144A91424E
:100A700001D3022020E0144A914204D2114A91424B
:100A800001D3032018E0114A914204D20E4A914248
:100A900001D3042010E00E4A914204D20B4A914245
:100AA00001D3052008E00B4A914204D2084A914242
:100AB00001D3062000E00720704700000040000836
:100AC0000080000800C000080000010800000208C3
:100AD000000004080000060870B50A480468001DFC
:100AE0000568001D0668344454B1082206492046B2
:100AF00003F0D3F8042204491031284603F0CDF85E
:100B000070BD0000107AF01F4A00002018B50246A0
:100B10000020009000BF92F83C00012801D1022083
:100B200018BD012082F83C0000BF0868092826D9BA
:100B30000868B0F1004F22D01068C0680B780A3BFB
:100B400003EB43040723A34098431368D860674B23
:100B50000868984207D11068C0680B7A40EA0360C1
:100B60001368D8601FE00B780A3B03EB43038868E7
:100B700098401368DB6818431368D86013E0106866
:100B800000690B7803EB43040723A34098431368E1
:100B900018610B7803EB43038868984013681B695E
:100BA0001843136818614868072817D21068406B0B
:100BB0000B795B1E03EB83041F23A3409843136848
:100BC0005863088880B20B795B1E03EB830398405F
:100BD00013685B6B18431368586331E048680D284D
:100BE00017D21068006B0B79DB1F03EB83041F2304
:100BF000A340984313681863088880B20B79DB1F01
:100C000003EB8303984013681B6B18431368186346
:100C100016E01068C06A0B790D3B03EB83041F23B9
:100C2000A34098431368D862088880B20B790D3BC3
:100C300003EB830398401368DB6A18431368D86298
:100C40002B4B1068984209D10868B0F1004F05D1CC
:100C50002848006820F44000C3F80403244B1068BF
:100C600098420FD1086812280CD12248006820F45D
:100C70000000C3F804031846D0F8040340F48000D1
:100C8000C3F804031A4B1068984228D1174B086820
:100C9000984202D00868112821D11648006820F433
:100CA0008000134BC3F804031846D0F8040340F443
:100CB0000000104B18600D4B086898420FD10E4889
:100CC00000680E4BB0FBF3F000EB8000400000909A
:100CD00002E00098401E009000980028F9D100BF63
:100CE000002082F83C0000BF00BF19E7120000108E
:100CF00000200140042301401000002040420F006A
:100D00000121014A11707047345901207047704722
:100D100070B5044600250CB9012070BD1549A06AC4
:100D2000884200D000BF206C30B9204600F024F883
:100D30000020606484F83C00206C00F0100088B94A
:100D4000206C20F4885040F0020020642046FFF719
:100D500069FB00206064206C20F0020040F001007C
:100D6000206400E0012500BF002084F83C0000BFA3
:100D70002846D2E70100000F10B586B004461421C2
:100D800001A8FFF795FA3C492068884271D100BF5D
:100D90003A48006840F480703849086008460068A6
:100DA00000F48070009000BF00BF00BF33481438CB
:100DB000006840F0040031491439086008460068B2
:100DC00000F00400009000BF00BF00BF08460068AC
:100DD00040F0010008600846006800F00100009043
:100DE00000BF00BF00BF0846006840F00200086076
:100DF0000846006800F00200009000BF00BF3320EA
:100E00000190032002900020039001A91C4800F0EB
:100E10009FFCCF200190032002900020039001A9A5
:100E2000184800F095FC012001900320029000205A
:100E3000039001A9144800F08BFC14481449086081
:100E400000204860002112488160C1604FF4806139
:100E50000161002141618161C1610162416200F073
:100E6000D3FA08B1FFF79EFC00BF0948A063846372
:100E700000BF06B010BD0000002001404438024011
:100E800000080240000002400004024010640240DA
:100E900078010020F8B504460D4616460020009063
:100EA00000BF94F83C00012801D10220F8BD0120C8
:100EB00084F83C0000BF2068806800F00100A0B901
:100EC0002068806840F00100216888604C48006814
:100ED0004C49B0FBF1F000EB4000009002E00098BC
:100EE000401E009000980028F9D12068806800F02A
:100EF000010000287AD0206C40F20161884340F460
:100F0000807020642068406800F4806028B1206C04
:100F100020F4005040F480502064206C00F4805095
:100F2000B0F5805F04D1606C20F00600606401E0E1
:100F30000020606400BF002084F83C0000BF3248FD
:100F4000A16BC8633148A16B08643148A16BC864C8
:100F50006FF02200216808602068406840F08060DF
:100F6000216848602068806840F48070216888604B
:100F7000226802F14C0133462A46A06B00F0BAFA0F
:100F80002448006800F01F0058B92068806800F00D
:100F9000405048BB2068806840F0804021688860ED
:100FA0002CE01D49206888420AD12068806800F042
:100FB000405028B92068806840F0804021688860EF
:100FC0001448006800F0100070B914492068884285
:100FD00014D12068806800F0405028B920688068EB
:100FE00040F080402168886008E0FFE7206C40F016
:100FF00010002064606C40F001006064002055E740
:101000001000002040420F007F0300081704000872
:10101000FD0300080423014000200140002201409C
:10102000F0B5034600BF5879012801D10220F0BD78
:101030000120587100BF022018711868046802F07E
:10104000100640F6FE70B0408443D1E9000640EA45
:10105000060502F0100005FA00F004431868046069
:101060001868006802F01007C026BE40B0431E6832
:1010700030600120187100BF0020587100BF00BF10
:10108000D5E710B504460CB9012010BD207920B970
:1010900000206071204600F009F802202071002035
:1010A0002061012020710020EFE7000010B586B01C
:1010B0000446142101A8FFF7FBF81749206888426D
:1010C00027D100BF1548006840F000501349086060
:1010D0000846006800F00050009000BF00BF00BF4D
:1010E0000E481038006840F001000C4910390860C3
:1010F0000846006800F00100009000BF00BF3020EB
:101100000190032002900020039001A9044800F000
:101110001FFB06B010BD00000074004040380240C4
:101120000000024038B5044600200090206800907E
:1011300029B902F10800009D2844009004E002F162
:101140001400009D2844009000980360002038BDE2
:1011500010B5024600BF5079012801D1022010BD10
:101160000120507100BF022010711068006801F06A
:1011700010040123A34018431368186061B9106874
:10118000006800F03C003C2816D11068406840F030
:101190000100136858600FE01068006800F47013D5
:1011A00001F010043C20A040834205D11068406843
:1011B00040F00200136858600120107100BF002049
:1011C000507100BF00BFCAE7F8B504460020009088
:1011D0008C4800684FF41651B0FBF1F7A56D2E68EE
:1011E00094F85C1008208840304098B1206800686E
:1011F00000F0040070B12068006820F0040021684D
:10120000086094F85C1008208840A860606D40F089
:101210000100606594F85C1001208840304068B19E
:101220002068406900F0800040B194F85C10012013
:101230008840A860606D40F00200606594F85C1022
:1012400004208840304068B12068006800F0020047
:1012500040B194F85C1004208840A860606D40F0B4
:101260000400606594F85C1010208840304078B32A
:101270002068006800F0080050B394F85C1010205B
:101280008840A8602068006800F4802080B1206851
:10129000006800F4002028B9206CC8B12046216CF9
:1012A000884715E0A06C98B12046A16C88470FE0F4
:1012B0002068006800F4807028B92068006820F079
:1012C000080021680860206C10B12046216C884716
:1012D00094F85C10202088403040002865D02068B9
:1012E000006800F0100000285FD094F85C10202007
:1012F0008840A86094F83500052828D12068006847
:1013000020F01600216808602068406920F0800005
:1013100021684861206C08B9A06C28B12068006879
:1013200020F008002168086094F85C103F20884095
:10133000A860012084F8350000BF002084F8340044
:1013400000BF206D10B12046216D8847F8BD206890
:10135000006800F4802080B12068006800F400205C
:1013600028B9606C10B12046616C88471DE0E06BC5
:10137000D8B12046E16B884717E02068006800F488
:10138000807068B92068006820F01000216808604B
:10139000012084F8350000BF002084F8340000BF2D
:1013A000E06B10B12046E16B8847606D38B3606D2B
:1013B00000F00100F0B1052084F8350020680068D5
:1013C00020F001002168086000BF0098401C0090D8
:1013D000B84200D905E02068006800F0010000284C
:1013E000F3D100BF012084F8350000BF002084F84D
:1013F000340000BFE06C10B12046E16C884700BFAC
:10140000A4E70000100000202DE9F041044600256B
:1014100000F09CFA074614B90120BDE8F081606A2B
:1014200000B100BF022084F8350000BF002084F81E
:10143000340000BF2068006820F0010021680860C7
:101440000AE000F083FAC01B052805D9202060655A
:10145000032084F83500E0E72068006800F0010010
:101460000028EED12068056821480540D4E9010133
:101470000843E16808432169084361690843A16999
:101480000843E1690843216A08430543606A042868
:1014900003D1D4E90B0108430543206805602068A7
:1014A000456925F00705606A0543606A04280DD187
:1014B000A06A0543E06A48B12046FFF707F928B162
:1014C00040206065012084F83500A6E7206845616A
:1014D0002046FFF7E1F8064694F85C103F2088406C
:1014E000B06000206065012084F83500002094E79A
:1014F0003F8010E02DE9F04704460D4616461F4692
:101500004FF00008D4F8589000BF94F83400012838
:1015100002D10220BDE8F087012084F8340000BF2A
:1015200094F8350001282BD1022084F835000020E2
:1015300060653B46324629462046FFF71CF994F881
:101540005C103F208840C9F808002068006840F01F
:101550001600216808602068406940F0800021681A
:101560004861206C28B12068006840F008002168BC
:1015700008602068006840F001002168086006E00B
:1015800000BF002084F8340000BF4FF0020840463E
:10159000C0E7000070B5044600F0D8F906462546BD
:1015A000681C10B104480078054400BF00F0CEF973
:1015B000801BA842FAD370BD0C0000202DE9F04139
:1015C00004460E460127002500BF2448007D01285F
:1015D00002D10220BDE8F08101202049087500BF3A
:1015E0004CF25030FFF7FCF907467FBB4FF0FF305D
:1015F0003060206801280ED1207BFFF70DF94CF2F6
:101600005030FFF7EDF907461548006820F0040058
:10161000134908601AE0656812E0217B2846FFF74D
:10162000C5F84CF25030FFF7DBF907460C4800686C
:1016300020F07A000A4908600FB1356005E06D1CA2
:10164000D4E901100844A842E7D800BF00BF002039
:101650000249087500BF3846BCE700003802002088
:10166000103C02400348006840F000400149086017
:1016700000207047103C02402DE9F04106460F461D
:1016800014461D464FF0010800BF2248007D012886
:1016900002D10220BDE8F08101201E49087500BF7B
:1016A0004CF25030FFF79CF98046B8F1000F29D179
:1016B00036B1012E09D0022E0CD0032E15D10EE02A
:1016C000E1B23846FFF7C8F810E0A1B23846FFF79C
:1016D00003F90BE021463846FFF71AF906E02246E7
:1016E0002B463846FFF7D2F800E000BF00BF4CF2AF
:1016F0005030FFF775F980460748006820F0010078
:101700000549086000BF00200249087500BF404637
:10171000C0E7000038020020103C024000200949C8
:10172000096801F0004159B10749064A0C3A1160B5
:10173000064911600349096801F0004101B1012027
:1017400070470000103C024023016745AB89EFCD94
:10175000F8B502460B46002100250024002000BFFA
:10176000D4E0012606FA01F51E6806EA0504AC423B
:1017700072D11E7906F00306012E04D01E7906F000
:101780000306022E13D190684F000326BE40B043DB
:101790004F00DE68BE4030439060506801268E40A6
:1017A000B0431E79C6F300168E40304350601E7958
:1017B00006F00306032E09D0D0684F000326BE4072
:1017C000B0434F009E68BE403043D0601E7906F0A3
:1017D0000306022E13D1CF0802F1200656F8270087
:1017E0004E07F70E0F26BE40B0434F07FF0E1E698F
:1017F000BE403043CF0802F1200646F827001068AB
:101800004F000326BE40B0431E7906F003064F008A
:10181000BE40304310605E6806F44036002E74D03F
:1018200000BF3C4E366846F480463A4F3E603E4626
:10183000366806F48046009600BF00BF364E8F081B
:1018400056F827008E07370F0F26BE40B043334EA1
:10185000B24202D1002624E057E0314EB24201D11B
:1018600001261EE02F4EB24201D1022619E02E4E73
:10187000B24201D1032614E02C4EB24201D104261B
:101880000FE02B4EB24201D105260AE0294EB242AA
:1018900001D1062605E0284EB24201D1072600E01C
:1018A00008268F073F0FBE4030431B4E8F0846F877
:1018B0002700224E3068A0435E6806F4801606B109
:1018C00020431E4E3060361D3068A0435E6806F42B
:1018D000001606B12043194E361D3060174E361FD4
:1018E0003068A0435E6806F4003606B12043134E0C
:1018F000361F3060361F3068A0435E6806F48036BD
:1019000006B120430D4E083E3060491C1029FFF4FB
:1019100028AFF8BD443802400838014000000240BA
:101920000004024000080240000C02400010024087
:101930000014024000180240001C0240083C014014
:101940000AB1816101E00B048361704701480068BE
:10195000704700000400002008B500BF094909686D
:1019600041F48041074A11601146096801F4804141
:10197000009100BF00BF044909680143024A116099
:1019800008BD0000443802400438014003480068A4
:1019900003490978084401490860704704000020A1
:1019A0000C00002010B5032000F09CF8002000F08F
:1019B00005F800F029F8002010BD000070B50446BD
:1019C0000E4800784FF47A71B1FBF0F00C490968C9
:1019D000B1FBF0F5284601F0ABFE08B1012070BD67
:1019E000102C07D200222146501E00F03DF8054879
:1019F000046001E00120F2E70020F0E70C00002085
:101A0000100000200800002008B500BF0D48006845
:101A100040F080500B4908600846006800F0805094
:101A2000009000BF00BF00BF081D006840F4804068
:101A3000091D08600846006800F48040009000BF5F
:101A400000BF08BD4038024001460846002809DBB7
:101A500000F01F0301229A4043099B0003F1E02399
:101A6000C3F8002100BF70472DE9F05F80460D46A6
:101A70001646002705F0CEFD074639462A4633466E
:101A800001F00700C0F1070ABAF1040F02D94FF0C4
:101A9000040A01E0C0F1070AD14600F1040ABAF1D4
:101AA000070F02D24FF0000A01E0A0F1030AD4466A
:101AB0004FF0010A0AFA09FAAAF1010A0AEA020A2F
:101AC0000AFA0CFA4FF0010B0BFA0CFBABF1010B0D
:101AD0000BEA030B4AEA0B042146404605F0A2FD3F
:101AE000BDE8F09F00BF00F00702064B19684FF6F3
:101AF000FF031940044B0B4343EA0221014B1960D9
:101B000000BF70470CED00E00000FA0501460A68CE
:101B10000120C1F80005002081F8F404906940F02C
:101B200000609061506D024B184350650020704773
:101B300003000010704702461068416200207047A1
:101B4000F0B5034615461868446A21B944EA0540D1
:101B50001E68B06219E01868806A04EB1044002225
:101B600008E0186800F5827050F8220004EB104479
:101B7000501CC2B2481E9042F3D844EA0547186888
:101B800000F582704E1E40F826700020F0BD10B5A2
:101B90000446D4F8040503F077FF10BD70B5044681
:101BA0000D4605EBC50304F13C0101EB83010A6915
:101BB0002946D4F8040503F062FE70BD70B50446F2
:101BC0000D4605EBC50304F51F7101EB83010A699E
:101BD0002946D4F8040503F0D6FE70BD10B50446BE
:101BE000D4F8040503F053FF10BD2DE9F04104467D
:101BF0000D4605F08000802808D105F00F0000EBAD
:101C0000C00104F13C0000EB810607E005F00F0085
:101C100000EBC00104F51F7000EB8106314620681F
:101C200005F07AFA07463846BDE8F08170B50446FB
:101C30000E4606F0800080280AD106F00F0000EB67
:101C4000C00104F13C0000EB81050120687009E04F
:101C500006F00F0000EBC00104F51F7000EB8105DA
:101C60000020687006F00F00287000BF94F8BC04D4
:101C7000012801D1022070BD012084F8BC0400BFFE
:101C80002946206804F01CFD00BF002084F8BC0435
:101C900000BF00BFEFE770B504460E4606F00F0028
:101CA0006168884201D9012070BD06F0800080285B
:101CB0000AD106F00F0000EBC00104F13C0000EB7C
:101CC00081050120687009E006F00F0000EBC001FB
:101CD00004F51F7000EB8105002068700020A870DB
:101CE00006F00F00287000BF94F8BC04012801D151
:101CF0000220D9E7012084F8BC0400BF29462068EF
:101D000004F0D2FF00BF002084F8BC0400BF00BF75
:101D1000CAE7024601F00F0000EBC00302F51F7096
:101D200000EB8300006A70472DE9F04705460E4638
:101D300090461F464FF0000906F0800080280AD127
:101D400006F00F0000EBC00105F13C0000EB810440
:101D50000120607009E006F00F0000EBC00105F5FE
:101D60001F7000EB81040020607006F00F002070EF
:101D7000C4F80C802771607808B120782081022F88
:101D800001D10020607100BF95F8BC04012802D188
:101D90000220BDE8F087012085F8BC0400BF214681
:101DA000286804F057FB00BF002085F8BC0400BF82
:101DB0004846EEE72DE9F04104460E4617469846A0
:101DC00006F00F0000EBC00104F51F7000EB810569
:101DD0002F61C5F8188000202862687006F00F0097
:101DE00028702069012800D16F6106F00F0028B922
:101DF000227C2946206804F031FE04E0227C29463A
:101E0000206804F0E5FF0020BDE8F08170B50446CD
:101E10000D4605F00F006168884201D9012070BDB0
:101E200005F0800080280AD105F00F0000EBC0010A
:101E300004F13C0000EB81060120707007E005EB27
:101E4000C50104F51F7000EB8106002070700120B1
:101E5000B07005F00F00307000BF94F8BC0401288A
:101E600001D10220DBE7012084F8BC0400BF314629
:101E7000206804F060FF05F00F0028B9217C04F20F
:101E8000C442206804F0D8FE00BF002084F8BC04DF
:101E900000BF00BFC3E72DE9F04104460E461746D8
:101EA000984606F00F0000EBC00104F13C0000EB87
:101EB00081052F61C5F81880002028620120687014
:101EC00006F00F0028702069012800D16F6106F02C
:101ED0000F0028B9227C2946206804F0BFFD04E0E9
:101EE000227C2946206804F073FF0020BDE8F081C1
:101EF0002DE9FE4F0446D4F800B05E46206805F098
:101F0000F2F9002874D1206805F064FA08B9BDE838
:101F1000FE8F40F608008059C0F30D20C4F8FC0481
:101F2000206805F057FA00F00200022805D1206869
:101F3000406900F0020021684861206805F04AFA13
:101F400000F01000102845D12068806920F01000B2
:101F500021688861DBF8209009F00F0000EBC001D8
:101F600004F51F7000EB810AC9F3434002281AD11F
:101F700047F6F07009EA000030B3C9F30A12584678
:101F8000DAF8101005F02BFAC9F30A11DAF810008C
:101F90000844CAF81000C9F30A11DAF8200008440E
:101FA000CAF8200010E0C9F3434006280CD10822EB
:101FB00004F2C441584605F012FAC9F30A11DAF8DE
:101FC00020000844CAF820002068806940F0100012
:101FD00021688861206805F0FDF900F40020B0F563
:101FE000002F7BD10025206805F0C4F9029072E033
:101FF00003E3029800F00100002868D0E9B22068ED
:1020000005F0DBF9804608F0010048B1012106F532
:10201000306000EB451081602946204602F0DEF872
:1020200008F00800082809D1082106F5306000EB07
:10203000451081602946204602F09EF808F0100005
:10204000102805D1102106F5306000EB45108160A5
:1020500008F00200022824D1DBF8140000F0800010
:10206000802807D140F60400805940F4806140F692
:102070000400815105EBC50104F51F7000EB810AD6
:102080009AF80300012806D100208AF80300E9B27B
:10209000204600F0BDFA022106F5306000EB451045
:1020A000816008F02000202805D1202106F530604D
:1020B00000EB4510816008F40050B0F5005F06D1D8
:1020C0004FF4005106F5306000EB451081606D1C47
:1020D000029840080290029800288AD1206805F0F2
:1020E00079F900F48020B0F5802F7DD1206805F0CB
:1020F00037F9029000259AE0029800F001000028CC
:1021000073D0E9B2206805F03FF9804608F001007D
:10211000F0B305F00F0101208840019040F6340033
:102120008159019821EA000040F6340188510121CB
:1021300006F5106000EB451081602069012824D16C
:1021400005EBC50104F13C0000EB810005EBC50285
:10215000016904F13C0000EB8200C068014405EB1A
:10216000C50204F13C0000EB820001616DB905EB92
:10217000C50104F13C0000EB8100806928B904F23C
:10218000C4420121206804F057FDE9B2204600E076
:1021900001E0FFF703FD08F00800082805D1082139
:1021A00006F5106000EB4510816008F01000102863
:1021B00005D1102106F5106000EB4510816008F094
:1021C0004000402805D1402106F5106000EB451085
:1021D000816008F0020002281DD12946584605F00A
:1021E00043F805EBC50101E025E01CE004F13C00EB
:1021F00000EB810A9AF80300012806D100208AF832
:102200000300E9B2204600F0FAF9022106F5106059
:1022100000EB4510816008F08000802803D129463A
:10222000204602F07DF86D1C02984008029002984A
:1022300000287FF461AF206805F0CCF800F0004082
:10224000B0F1004F1CD140F60400805920F001018C
:1022500040F60400815194F8F404012807D10020CD
:1022600084F8F40400212046FFF764FC02E02046D5
:1022700000F01AFB2068406900F0004021684861C6
:10228000206805F0A7F800F40060B0F5006F0ED1EB
:1022900040F60800805900F0010010B1204600F01F
:1022A0004FFB2068406900F40060216848612068A5
:1022B00005F090F800F00060B0F1006F19D12068CF
:1022C000406900F000602168486194F8F40468B93E
:1022D000012084F8F4042068406DC0F38300C4F842
:1022E000F80401212046FFF725FC02E0204600F01B
:1022F00027FB206805F06EF800F48050B0F5805F91
:102300007ED140F60400805920F0010140F604001F
:1023100081511021206804F0A7FF002732E04FF61A
:102320007F3106F5106000EB4710816006F5106004
:1023300000EB4710006820F4001106F5106000EB78
:10234000471001604FF67F3106F5306000EB471013
:10235000816006F5306000EB4710006820F4001142
:1023600006F5306000EB4710016006F5306000EBC9
:102370004710006840F0006106F5306000EB471040
:1023800001607F1C6068B842C9D840F61C008059C3
:1023900040F0011140F61C008151206B70B1D6F85D
:1023A000840840F00B01C6F8841840F644008059B8
:1023B00040F00B0140F6440081510FE040F614005C
:1023C000805942F22B01084340F614018851081F3E
:1023D000805940F00B014FF401608151D6F800089C
:1023E00020F4FE60C6F80008217C04F2C442206894
:1023F00004F022FC2068406900F48050216800E06D
:1024000000E04861206804F0E5FF00F40050B0F5FA
:10241000005F17D1206804F085F8206804F050FFB1
:10242000E06000F0A5FE0090227B2068009905F096
:1024300059F8204600F020FA2068406900F4005066
:1024400021684861206804F0C5FF00F008000828F2
:1024500008D1204600F02FFA2068406900F00800FB
:1024600021684861206804F0B5FF00F080008028F2
:1024700018D1DBF8180020F08000CBF818000125F7
:102480000DE005EBC50104F51F7000EB8100C0787D
:10249000012803D1E9B22046FFF7A7FB6D1C606855
:1024A000A842EED8206804F095FF00F48010B0F543
:1024B000801F2DD1012522E006F5106000EB4510AC
:1024C000D0F8009005EBC50104F13C0000EB810061
:1024D0000079012812D109F00040B0F1004F0DD170
:1024E000012105EBC50204F13C0000EB8200C17044
:1024F000E8B240F080012046FFF777FB6D1C606872
:10250000A842D9D82068406900F480102168486149
:10251000206804F05FFF00F40010B0F5001F44D104
:10252000012538E006F5306000EB4510D0F800904A
:1025300005EBC50104F51F7000EB8100007901284F
:1025400028D109F00040B0F1004F23D109F48030C8
:1025500094F8FC1401F0010188421BD1012105EB24
:10256000C50204F51F7000EB8200C170DBF8180093
:1025700040F08000CBF81800DBF8140000F0800079
:1025800040B940F60400805940F4007140F6040060
:10259000815103E06D1C6068A842C3D800BF206869
:1025A000406900F4001021684861206804F012FFBF
:1025B00000F08040B0F1804F08D12046FFF7E7FAE5
:1025C0002068406900F0804021684861206804F07C
:1025D00001FF00F0040004280FD12068D0F8049017
:1025E00009F00400042802D12046FFF7F7FA20681A
:1025F000406840EA09002168486000BF87E470B580
:1026000004460D462946D4F8040503F0AFFA70BD20
:1026100070B504460D462946D4F8040503F0CAFAFD
:1026200070BD70B58AB0044614B901200AB070BDFF
:10263000266894F8BD0428B9002084F8BC0420461C
:1026400000F0A8F8032084F8BD04F06B00F480705B
:1026500008B900212161206804F0F8F9282204F16A
:1026600010016846FDF70BFE94E80F0003F06EFFC3
:1026700020B1022084F8BD040120D7E700212068A2
:1026800004F0DDFE002531E0012105EBC50204F177
:102690003C0000EB8200417005EBC50104F13C00F9
:1026A00000F8215005EBC50100EB810005810021F8
:1026B00005EBC50204F13C0000EB8200017105EB63
:1026C000C50204F13C0000EB8200C16005EBC502CD
:1026D00004F13C0000EB8200016105EBC50204F14E
:1026E0003C0000EB82008161681CC5B26068A842B2
:1026F000CAD800252AE0002105EBC50204F51F70A9
:1027000000EB8200417005EBC50104F51F7000F875
:102710002150002105EBC50200EB8200017105EBA1
:10272000C50204F51F7000EB8200C16005EBC50215
:1027300004F51F7000EB8200016105EBC50204F592
:102740001F7000EB82008161681CC5B26068A842FE
:10275000D1D8282204F110016846FDF790FD94E8D5
:102760000F0004F077F820B1022084F8BD040120A6
:102770005CE7002084F83800012084F8BD04606A1A
:10278000012802D12046FFF7C1F9206804F050F873
:1027900000204BE710B5A6B00446142121A8FDF790
:1027A00087FD802101A8FDF783FD3049206888421C
:1027B00059D1C000019000201E9001A800F022F91C
:1027C00008B1FDF7EFFF00BF2948006840F00200A4
:1027D000274908600846006800F00200009000BF2A
:1027E00000BF4FF44040219002202290002023900F
:1027F000032024900C20259021A91E48FEF7A8FF55
:1028000000BF1B481430006840F0004018491431E4
:1028100008600846006800F00040009000BF00BF5C
:1028200000BF1348006840F0005011490860084696
:10283000006800F00050009000BF00BF00BF0846D5
:10284000006840F0804008600846006800F0804062
:10285000009000BF00BF002211464D20FFF704F991
:102860004D20FFF7F1F826B010BD00000000044035
:10287000303802400004024070B504460125E0688B
:1028800008B9002506E0E068022801D1012501E031
:10289000FDF788FF2946D4F8040503F034FAD4F88C
:1028A000040503F0DBF970BD10B50446D4F8040547
:1028B00003F00AFA10BD10B50446D4F8040503F07D
:1028C0000EFA10BD70B504460D4600BF94F8BC0466
:1028D000012801D1022070BD012084F8BC0400BF92
:1028E00084F838502946206804F0DDFD00BF002040
:1028F00084F8BC0400BF00BFEDE710B5044604F245
:10290000C441D4F8040503F015FA10BD10B504460F
:1029100000BF94F8BC04012801D1022010BD0120A1
:1029200084F8BC0400BF206804F06CFC206803F04D
:102930006DFF00BF002084F8BC0400BF00BFEDE7BE
:1029400010B50446D4F8040503F051FA2068D0F815
:10295000000E40F001002168C1F8000E206A28B185
:102960000348006840F006000149086010BD0000FF
:1029700010ED00E038B5002400BF2048006840F0AA
:1029800080501E4908600846006800F080500090A2
:1029900000BF00BF1A48006840F480301849086042
:1029A000FEF7D4FF044607E0FEF7D0FF001BB0F5AA
:1029B0007A7F01D9032038BD1148406800F4803087
:1029C000B0F5803FF0D10E48006840F400300C496B
:1029D0000860FEF7BBFF044607E0FEF7B7FF001BE9
:1029E000B0F57A7F01D90320E5E70548406800F497
:1029F0000030B0F5003FF0D10020DCE74038024065
:102A0000007000402DE9F843044600260025002709
:102A1000A846207800F0010080B100BFF7480068A8
:102A200020F40000F549086008460068E16A0843A0
:102A3000F249086000BFE06A00B90127206800F48D
:102A40000020B0F5002F12D1EC488430006820F44B
:102A50004010616B0843E94984310860606BB0F550
:102A6000801F00D10127606B08B94FF00108206872
:102A700000F48010B0F5801F12D1E0488430006867
:102A800020F44000A16B0843DC4984310860A06B4E
:102A9000B0F5800F00D10127A06B08B94FF00108F5
:102AA000207800F02000202870D100BFD3483830B3
:102AB000006840F08050D14938310860084600680D
:102AC00000F08050009000BF00BFCD48006840F487
:102AD0008070CB490860FEF739FF064607E0FEF735
:102AE00035FF801B642802D90320BDE8F883C44861
:102AF000006800F480700028F1D0C0486830006899
:102B000000F4407585B3208D00F44070A8422BD0AE
:102B1000BA486830006820F44075B84868300068EA
:102B200040F48030B549683108600846006820F4F8
:102B30008030086008460560006800F0010098B128
:102B4000FEF704FF064608E0FEF700FF801B41F297
:102B50008831884201D90320C7E7A8486830006857
:102B6000C0F340000028EFD000BF208D00F440707B
:102B7000B0F5407F0BD1A148006820F4F810A14ABD
:102B8000A16A114008439D49086006E010E09B4897
:102B9000006820F4F8109949086098486830006887
:102BA000218DC1F30B01084394496831086000BFCF
:102BB000207800F01000102810D100BF8F4884301A
:102BC000006820F080708D498431086008460068F4
:102BD000216B084389498431086000BF208800F4D4
:102BE0008040B0F5804F09D184488830006820F4D7
:102BF0004030E16D0843814988310860208800F445
:102C00000040B0F5004F09D17C488830006820F4BE
:102C10004020216E0843794988310860206800F41B
:102C20008030B0F5803F09D174488830006820F4C6
:102C30004010616E0843714988310860207800F0C7
:102C40004000402809D16D488830006820F003001A
:102C5000E16B0843694988310860207800F0800002
:102C6000802809D165488830006820F00C00216C6C
:102C70000843624988310860208800F48070B0F50C
:102C8000807F09D15D488830006820F03000616C99
:102C900008435A4988310860208800F40070B0F574
:102CA000007F09D155488830006820F0C000A16C31
:102CB0000843524988310860208800F48060B0F5EC
:102CC000806F09D14D488830006820F44070E16C75
:102CD00008434A4988310860208800F40060B0F554
:102CE000006F09D145488830006820F44060216DAC
:102CF0000843424988310860208800F48050B0F5CC
:102D0000805F09D13D488830006820F44050616DF3
:102D100008433A4988310860208800F40050B0F533
:102D2000005F09D135488830006820F44040A16D2B
:102D30000843324988310860206800F40010B0F57B
:102D4000001F0FD12D488830006820F00060616FAF
:102D500008432A4988310860606FB0F1006F01D1E3
:102D60004FF00108206800F48020B0F5802F09D1D1
:102D700022488830006820F04070E16E08431F4907
:102D800088310860206800F40000B0F5000F09D118
:102D90001A488830006820F08050A16F0843174916
:102DA00088310860206800F08060B0F1806F09D140
:102DB00012488830006820F00050E16F08430F4946
:102DC00088310860012F05D0206800F00070B0F154
:102DD000007F7DD109480838006820F080600749ED
:102DE00008390860FEF7B2FD06460DE0FEF7AEFDBD
:102DF000801B642808D9032077E6000008380240C9
:102E000000700040FFFCFF0F73480068C0F3C06013
:102E10000028EBD1207800F0010080B1E06A70B9A1
:102E20006D4884300068C0F303656068800140EA43
:102E30000561207A41EA00706749843108602068A2
:102E400000F40020B0F5002F03D1606BB0F5801FB7
:102E500009D0206800F48010B0F5801F1DD1A06B50
:102E6000B0F5800F19D15C4884300068C0F302755A
:102E700060688101207B41EA006040EA05705649A4
:102E80008431086054488C30006820F01F00E169EC
:102E9000491E084350498C310860206800F00070DA
:102EA000B0F1007F0AD160688101207B41EA0061B6
:102EB000207A41EA00704849843108604648006839
:102EC00040F0806044490860FEF740FD064607E098
:102ED0000CE0FEF73BFD801B642801D9032004E6CB
:102EE0003D480068C0F3C0600028F2D0B8F1010F7F
:102EF00070D13948006820F0805037490860FEF7EB
:102F000025FD064606E0FEF721FD801B642801D959
:102F10000320EAE530480068C0F340700028F2D191
:102F2000206800F40020B0F5002F01D1606B38B1AB
:102F3000206800F48010B0F5801F1BD1A06BC8B9C9
:102F4000254888300068C0F301452069800140EAC7
:102F50000541207D41EA00601F4988310860081D55
:102F6000006820F4F851206A401E41EA00201A4906
:102F70008C310860206800F40010B0F5001F12D1F9
:102F8000606FB0F1006F0ED1134888300068C0F355
:102F9000036520698101208B41EA004040EA056019
:102FA0000D49883108600C48006840F080500A499B
:102FB0000860FEF7CBFC064606E0FEF7C7FC801B68
:102FC000642801D9032090E503480068C0F34070ED
:102FD0000028F2D0002088E50038024070B5044691
:102FE0000D4600260CB9012070BD5C48006800F059
:102FF0000F00A8420ED25948006820F00F00284365
:10300000564908600846006800F00F00A84201D049
:103010000120E9E7207800F0020002281DD1207885
:1030200000F00400042805D14D48006840F4E05049
:103030004B490860207800F00800082805D148486E
:10304000006840F46040464908604548006820F048
:10305000F000A168084342490860207800F00100B0
:1030600090B36068012807D13D4808380068C0F374
:103070004040A0B90120B7E76068022807D138486E
:1030800008380068C0F3406048B90120ACE7344814
:1030900008380068C0F3400008B90120A4E73048B0
:1030A000006820F00300616808432D490860FEF7BE
:1030B0004DFC064609E0FEF749FC801B41F28831D1
:1030C000884202D903208FE707E02548006800F016
:1030D0000C006168B0EB810FEDD12048006800F072
:1030E0000F00A8420ED91D48006820F00F002843A9
:1030F0001A4908600846006800F00F00A84201D095
:10310000012071E7207800F00400042807D114485A
:10311000006820F4E050E168084311490860207815
:1031200000F00800082808D10D48006820F460402D
:10313000216940EAC1000A49086000F01FF8084907
:103140000968C1F30311074A515CC8400649086089
:1031500006480068FEF732FC002045E7003C0240CC
:1031600008380240587D00081000002008000020A8
:103170000148006870470000100000202DE9F0476A
:10318000002400250026A1462548006800F00C0018
:1031900020B1042805D008283AD105E0DFF8849052
:1031A00039E0DFF8849036E01D48001F006800F029
:1031B0003F041B48001F006800F4800078B11A48E3
:1031C0001749091F0968C1F38811A0FB0170014666
:1031D000224600233846FDF721F805460EE0114847
:1031E0000F49091F0968C1F38811A0FB017001464E
:1031F000224600233846FDF711F805460848001F0F
:103200000068C0F30140401C4600B5FBF6F902E03F
:10321000DFF8109000BF00BF4846BDE8F08700000F
:10322000083802400024F40040787D01F8B50446D7
:1032300000270CB90120F8BD207800F0010000281B
:1032400071D0F948006800F00C0004280DD0F64851
:10325000006800F00C00082813D1F348001F006834
:1032600000F48000B0F5800F0BD1EF4808380068FB
:10327000C0F34040002869D06068002866D1012072
:10328000D9E700BF6068B0F5803F08D1E64808384C
:10329000006840F48030E449083908602EE0606836
:1032A00068B9E1480838006820F48030DE49083900
:1032B00008600846006820F4802008601EE060680E
:1032C000B0F5A02F0DD1D8480838006840F4802010
:1032D000D549083908600846006840F48030086025
:1032E0000CE0D1480838006820F48030CE49083915
:1032F00008600846006820F48020086000BF60680D
:1033000090B1FEF723FB054606E0FEF71FFB401BCE
:10331000642801D903208EE7C34808380068C0F349
:1033200040400028F1D011E0FEF710FB054606E012
:10333000FEF70CFB401B642801D903207BE7BA4849
:1033400008380068C0F340400028F1D1207800F030
:103350000200022869D1B448006800F00C0058B19E
:10336000B148006800F00C0008281CD1AE48001FCE
:10337000006800F48000B0B9AB4808380068C0F3BA
:10338000400020B1E068012801D0012053E7A648A1
:103390000838006820F0F800216940EAC100A2491D
:1033A0000839086041E0E06828B39F4808380068A1
:1033B00040F001009C4908390860FEF7C7FA05464D
:1033C00006E0FEF7C3FA401B022801D9032032E7CA
:1033D000954808380068C0F340000028F1D09248B2
:1033E0000838006820F0F800216940EAC1008E49E1
:1033F0000839086019E08C480838006820F001009E
:10340000894908390860FEF7A1FA054606E0FEF78B
:103410009DFA401B022801D903200CE78248083896
:103420000068C0F340000028F1D1207800F00800C7
:10343000082836D16069D0B17B486C30006840F014
:10344000010079496C310860FEF780FA054606E014
:10345000FEF77CFA401B022801D90320EBE67248F4
:103460006C300068C0F340000028F1D019E06E48CD
:103470006C30006820F001006B496C310860FEF789
:1034800065FA054606E0FEF761FA401B022801D9FD
:103490000320D0E664486C300068C0F34000002888
:1034A000F1D1207800F00400042874D15E4838304F
:1034B000006800F0805080B900BF5B483830006879
:1034C00040F080505849383108600846006800F0E4
:1034D0008050009000BF00BF01275448006800F4EE
:1034E0008070B0B95148006840F480704F4908605E
:1034F000FEF72CFA054606E0FEF728FA401B642882
:1035000001D9032097E64948006800F4807000283C
:10351000F2D000BFA068012808D143486830006895
:1035200040F001004049683108602DE0A06868B9AA
:103530003D486830006820F001003B496831086070
:103540000846006820F0040008601DE0A068052817
:103550000DD135486830006840F0040032496831C8
:1035600008600846006840F0010008600CE02E4842
:103570006830006820F001002B4968310860084677
:10358000006820F00400086000BFA068A8B1FEF742
:10359000DDF9054609E02EE0FEF7D8F9401B41F2BF
:1035A0008831884201D9032045E61F486830006809
:1035B000C0F340000028EFD013E0FEF7C7F905463E
:1035C00008E0FEF7C3F9401B41F28831884201D977
:1035D000032030E6144868300068C0F3400000283B
:1035E000EFD1012F07D110483830006820F080500B
:1035F0000D4938310860A069002852D00A48006897
:1036000000F00C00082865D0A06902284AD10648BD
:103610000838006820F08070034908390860FEF718
:1036200095F905460BE000000838024000700040A4
:10363000FEF78CF9401B022801D90320FBE53B482B
:103640000068C0F340600028F2D1E06940F000500B
:10365000216A0843616A40EA81110122A06AC2EB33
:10366000500041EA00412C20005D41EA00602F49F2
:10367000091D0860081F006840F08070091F08607D
:10368000FEF764F9054606E0FEF760F9401B0228E4
:1036900001D90320CFE525480068C0F34060002829
:1036A000F2D040E02148006820F080701F49086097
:1036B000FEF74CF9054606E0FEF748F9401B0228E4
:1036C00001D90320B7E519480068C0F3406000281D
:1036D000F2D128E01548001D0668A069012820D015
:1036E00006F48001E06981421BD106F03F01206AA7
:1036F000814216D147F6C0703040616AB0EB811F3D
:103700000FD106F440310122A06AC2EB5000B1EBA8
:10371000004F06D106F070612C20005DB1EB006F08
:1037200001D0012087E5002085E500000038024037
:1037300070B504462546681EB0F1807F01D3012094
:103740000FE0681E4FF0E02148610F214FF0FF307D
:1037500003F068FF00204FF0E02188610720086136
:10376000002070BD704770477047000030B50246BA
:103770000B4600BF92F83C00012801D1022030BD69
:10378000012082F83C0000BF022082F83D00106852
:10379000416810688468214D1068A84203D0204D0C
:1037A0001068A84203D121F470015868014321F048
:1037B00070011868014310684160184D1068A842F4
:1037C0001BD01068B0F1804F17D0164D1068A8427A
:1037D00013D0154D1068A8420FD0144D1068A842A0
:1037E0000BD00F4D1068A84207D0114D1068A842A9
:1037F00003D0104D1068A84205D124F080049868C9
:10380000044310688460012082F83D0000BF00205E
:1038100082F83C0000BF00BFB1E70000000001409B
:10382000000401400004004000080040000C00407B
:10383000004001400018004010B504460CB90120BA
:1038400010BD94F83D0028B9002084F83C002046C3
:1038500000F02AF8022084F83D00211D206801F0C4
:10386000B5F8012084F8480000BF84F83E0001212B
:103870003F2001554020015541200155422001556E
:103880004320015500BF00BF012084F844004520BB
:103890000155462001554720015500BF012084F8FD
:1038A0003D000020CCE7000038B504462068B0F1A8
:1038B000804F15D100BF0B48006840F00100094956
:1038C00008600846006800F00100009000BF00BFDB
:1038D000002211461C20FEF7C7F81C20FEF7B4F8A2
:1038E00038BD000040380240014691F83D000128F3
:1038F00001D001207047022081F83D000868C068AF
:1039000040F001000B68D8601C4B086898421BD03F
:103910000868B0F1804F17D0194B0868984213D04F
:10392000184B086898420FD0174B086898420BD084
:10393000164B0868984207D0154B0868984203D088
:10394000144B0868984210D108688068124B00EA4E
:103950000302062A0FD0B2F5803F0CD00868006839
:1039600040F001000B68186005E00868006840F04E
:1039700001000B6818600020BCE700000000014057
:103980000004004000080040000C0040000401401A
:103990000040014000180040070001002DE9F041FF
:1039A00004460D46002700BF94F83C00012802D1D0
:1039B0000220BDE8F081012084F83C0000BF022015
:1039C00084F83D00206886683748064026F47F4624
:1039D000206886602868502833D00CDC202850D01E
:1039E00004DC00284BD0102851D149E0302849D0C0
:1039F00040284CD139E060282DD0702807D0B0F590
:103A0000805F03D0B0F5005F41D10DE041E0D5E922
:103A100002136A68206801F045F82068866846F05D
:103A200077062068866034E0D5E902136A6820686A
:103A300001F038F82068806840F480402168886090
:103A400027E0EA686968206801F040F850212068A2
:103A500001F033F81DE0EA686968206801F049F870
:103A60006021206801F029F813E0EA68696820689D
:103A700001F02CF84021206801F01FF809E000BF98
:103A800000BF00BF2968206801F017F801E0012796
:103A900000BF00BF012084F83D0000BF002084F873
:103AA0003C0000BF384684E788FFFEFF704710B532
:103AB000044620680069C0F34000D8B12068C0689F
:103AC000C0F34000B0B16FF002002168086101202E
:103AD00020772068806900F0030018B12046FFF7C6
:103AE000E5FF05E0204600F0BEF8204600F0BCF8F7
:103AF0000020207720680069C0F38000D8B12068DA
:103B0000C068C0F38000B0B16FF0040021680861A4
:103B1000022020772068806900F4407018B12046A8
:103B2000FFF7C4FF05E0204600F09DF8204600F0B6
:103B30009BF80020207720680069C0F3C000D8B14E
:103B40002068C068C0F3C000B0B16FF00800216801
:103B50000861042020772068C06900F0030018B1D4
:103B60002046FFF7A3FF05E0204600F07CF8204642
:103B700000F07AF80020207720680069C0F3001078
:103B8000D8B12068C068C0F30010B0B16FF0100069
:103B900021680861082020772068C06900F440701F
:103BA00018B12046FFF782FF05E0204600F05BF8E1
:103BB000204600F059F8002020772068006900F0C6
:103BC000010058B12068C06800F0010030B16FF00A
:103BD000010021680861204600F048F8206800696B
:103BE000C0F3C01058B12068C068C0F3C01030B135
:103BF0006FF08000216808612046FFF7B4FD20685F
:103C00000069C0F3002058B12068C068C0F3C0103C
:103C100030B16FF48070216808612046FFF7A2FD83
:103C200020680069C0F3801058B12068C068C0F3F4
:103C3000801030B16FF0400021680861204600F02C
:103C400029F820680069C0F3401058B12068C068A6
:103C5000C0F3401030B16FF02000216808612046A9
:103C6000FFF782FD10BD704770470000074988428A
:103C70000AD107490978491C054A1170114609788B
:103C8000092901DD0021117070470000EC010020BE
:103C900000000020704700BFFEE730B50B46002152
:103CA00000BF16E00A24B4EB107F05D9302404EBE2
:103CB000107403F8114005E0412404EB10740A3C31
:103CC00003F81140000100254C00641C1D554C1CDC
:103CD000E1B29142E6DB30BD70B505460C460026E8
:103CE00000F02CF82846FCF7ADFE1049086020468D
:103CF000FCF7A8FE0D490968401A401C0C490860F1
:103D000000200C4908600220C8600848006848602C
:103D10000748006888600220C86007490548FDF729
:103D20004DFC08B1B0B270BD0020FCE708010020D6
:103D30000C010020F85801201401002010B5FDF7F7
:103D4000EDFCF3200149086010BD00000C3C02406E
:103D50001FB5002000900190029003904D484E49FD
:103D600008604FF48030486041024B488160012177
:103D700001610021816180F82010C16247498162A0
:103D80000021C1600B21C161012180F830100021A8
:103D90004161FCF7BDFF08B1FCF704FD0B2000906A
:103DA000012001900020029069463B48FCF7AEFEDE
:103DB00008B1FCF7F7FC0A20009002200190694648
:103DC0003548FCF7A3FE08B1FCF7ECFC002000909E
:103DD0000320019069463048FCF798FE08B1FCF7D3
:103DE000E1FC012000900420019069462A48FCF77C
:103DF0008DFE08B1FCF7D6FC022000900520019052
:103E000069462548FCF782FE08B1FCF7CBFC03208D
:103E100000900620019069461F48FCF777FE08B124
:103E2000FCF7C0FC062000900720019069461A4864
:103E3000FCF76CFE08B1FCF7B5FC072000900820E9
:103E4000019069461448FCF761FE08B1FCF7AAFC32
:103E50000E2000900920019069460F48FCF756FE9D
:103E600008B1FCF79FFC0F2000900A2001906946E2
:103E70000948FCF74BFE08B1FCF794FC08200090C1
:103E80000B20019069460448FCF740FE08B1FCF79E
:103E900089FC1FBD00200140300100200100000FFF
:103EA0001CB50020009001900E480F49086008469C
:103EB000FDF7E7F808B1FCF775FC00200090022040
:103EC0000190002269460848FDF7AAF808B1FCF7FE
:103ED00069FC102269460448FDF7A2F808B1FCF716
:103EE00061FC1CBD00740040D801002008B500BF73
:103EF0000A48006840F480000849086008460068E5
:103F000000F48000009000BF00BF0022114638205E
:103F1000FDF7AAFD3820FDF797FD08BD30380240B7
:103F200000B587B0142102A8FCF7C2F900BF5848B9
:103F3000006840F08000564908600846006800F0BC
:103F40008000019000BF00BF00BF0846006840F03D
:103F5000040008600846006800F00400019000BFFB
:103F600000BF00BF0846006840F001000860084636
:103F7000006800F00100019000BF00BF00BF0846CC
:103F8000006840F0020008600846006800F0020087
:103F9000019000BF00BF00220C213E48FDF7D0FC7D
:103FA00001224FF48E513C48FDF7CAFC002242F238
:103FB00038013948FDF7C4FC0122D1033748FDF729
:103FC000BFFC01224FF4E0513248FDF7B9FC0C2050
:103FD000029001200390022004900320059002A982
:103FE0002C48FDF7B5FB4FF4805002900120039060
:103FF00004900220059002A92748FDF7A9FB4FF481
:1040000000500290012003900220049000200590AF
:1040100002A92148FDF79CFB4FF4004002900120CB
:10402000039004900320059002A91C48FDF790FB23
:104030004FF4E0500290012003900490032005907B
:1040400002A91448FDF784FB4FF4EC7002900120A4
:10405000039004900320059002A90F48FDF778FB18
:10406000202002900120039002200490032005905C
:1040700002A90948FDF76CFB1020FDF76DFC20201C
:10408000FDF76AFC4020FDF767FC07B000BD0000AB
:1040900030380240000802400004024000000240A4
:1040A00000B587B000200390049005900690009022
:1040B000019002904FF080401549086040F2E730CF
:1040C000486000211248816040F66F01C1604FF4E2
:1040D0008071016180218161FFF7AEFB08B1FCF7BF
:1040E00061FB4FF48050039003A90948FFF756FC89
:1040F00008B1FCF757FB0020009002906946044885
:10410000FFF734FB08B1FCF74DFB07B000BD000022
:10411000EC01002010B501220D490E4801F06CFBA6
:1041200008B1FCF73FFB0C490A4801F09DFE08B1BD
:10413000FCF738FB0949074800F070FF08B1FCF7AD
:1041400031FB044801F092FF08B1FCF72BFB10BDD6
:104150001400002054020020880000206400002089
:1041600000BFFEE700BFFEE710B50248FDF7C0FE46
:1041700010BD0000301B00202DE9F04704460D461D
:1041800026683746D6F8408007F5306000EB4510CA
:10419000D0F80890104880450BD909F40040B0F5DC
:1041A000004F06D14FF4004107F5306000EB451099
:1041B00081602046FEF7A1FB0748804508D92069A9
:1041C000012805D104F2C4420121206802F034FD27
:1041D0000020BDE8F08700000A30544F2DE9F04779
:1041E00005460C46D5F800904E46D9F840A006F595
:1041F000306000EB4410D0F808802869012855D1C0
:1042000008F0080008280FD1434882450BD908F46C
:104210000040B0F5004F7BD14FF4004106F530600F
:1042200000EB4410816073E008F02000202806D1E4
:10423000202106F5306000EB4410816068E008F052
:104240002800002864D1344882450CD908F4004085
:10425000B0F5004F07D14FF4004106F5306000EB98
:104260004410816054E004EBC40105F51F7000EBBD
:10427000810706F5306000EB4410F9690069C0F36E
:104280001200081A386264B9B86930B905F2C4423C
:104290000121286802F0D0FC03E0396A386908443B
:1042A0003861E1B22846FDF789FC31E01B488245C0
:1042B0001BD108F40040B0F5004F07D14FF4004186
:1042C00006F5306000EB4410816021E008F020002A
:1042D000202805D1202106F5306000EB44108160D4
:1042E000E1B22846FDF76AFC12E06CB904EBC401A8
:1042F00005F51F7000EB8100806928B905F2C44202
:104300000021286802F098FCE1B22846FDF756FC2F
:104310000020BDE8F08700000A30544F0A31544FA6
:104320002DE9F84F07460E46D7F80090C84606EB31
:10433000C60107F13C0000EB8104A169206A8842B4
:1043400002D90120BDE8F88F216AA069451AE0680A
:10435000A84200D2E568E81C4FEA900A17E0216AFB
:10436000A069451AE068A84200D2E568E81C4FEA57
:10437000900A387CABB2F2B200904846216903F053
:1043800025F9206928442061206A2844206208F524
:10439000106000EB4610806980B2504506D3A169D9
:1043A000206A884202D2A0690028D8D1216AA06977
:1043B00088420ED806F00F01012000FA01FB40F6FA
:1043C000340050F8080020EA0B0040F6340141F8B0
:1043D00008000020B6E7704700B5A1B0802101A811
:1043E000FBF766FF1020019000050D9001A8FEF775
:1043F00009FB08B1FCF7D6F921B000BD70B5044641
:1044000000253F48006820F004003D490860084648
:10441000006820F008000860322003F04DF9002009
:10442000384908700B212046FCF7B4F800BF354826
:10443000007820B92846691C8DB2FA28F7DB30488D
:10444000006840F004002E4908600846006820F02B
:1044500008000860032003F02FF9002029490870A4
:1044600000250B2104F10B00FCF794F800BF254850
:10447000007820B92846691C8DB2FA28F7DB20485D
:10448000006820F004001E4908600846006840F0FB
:1044900008000860032003F00FF900201949087094
:1044A00000250B2104F11600FCF774F800BF154835
:1044B000007820B92846691C8DB2FA28F7DB10482D
:1044C000006840F004000E4908600846006840F0AB
:1044D00008000860032003F0EFF800200949087085
:1044E00000250B2104F12100FCF754F800BF05481A
:1044F000007820B92846691C8DB2FA28F7DB70BD18
:104500001408024034590120F0B504460D462B270B
:10451000E01800F10806002107E0781A285C3070E6
:104520003436501C82B2481CC1B22C29F5DB10462F
:10453000F0BDF0B504460D462B26002117E0685C5F
:10454000002812DD1046571CBAB22354701A00F02E
:10455000FF0C1046571CBAB204F800C015F801C091
:104560001046571CBAB204F800C0481CC1B22C292E
:10457000E5DB1046F0BD000070B505460024FF22C3
:104580002146641C6A5400222146641C6A54FF229E
:104590002146641C6A5400222146641C6A54214648
:1045A000641C6A542146641C6A5410222146641C0F
:1045B0006A54284882782146641C6A54807802280C
:1045C00017D101260FE0304600F0DEF82248FFF751
:1045D00015FF701EC3B222461F492846FFF7A9FFE8
:1045E0000446701CC6B2352EEDDB002000F0CCF87E
:1045F00016E001260FE0304600F0C6F81648FFF737
:10460000FDFE701EC3B2224613492846FFF77CFF09
:104610000446701CC6B2352EEDDB002000F0B4F865
:104620002046611C8CB22F542046E11704EB116127
:10463000090A2971E11704EB11610912A4EB0121A8
:104640006971601E81B2284603F0D4FA611E685475
:10465000204670BD345901200859012008287CD219
:10466000DFE800F00415263748596A7C4549096897
:1046700021F00801434A11601146096821F0100138
:1046800011601146096821F02001116078E03D4970
:10469000096841F008013B4A11601146096821F0A0
:1046A000100111601146096821F02001116067E0D6
:1046B0003449096821F00801324A1160114609683D
:1046C00041F0100111601146096821F020011160CC
:1046D00056E02C49096841F008012A4A1160114648
:1046E000096841F0100111601146096821F02001AC
:1046F000116045E02349096821F00801214A116051
:104700001146096821F0100111601146096841F055
:104710002001116034E01B49096841F00801194A81
:1047200011601146096821F01001116011460968F5
:1047300041F02001116023E01249096821F00801CD
:10474000104A11601146096841F0100111601146CC
:10475000096841F02001116012E010E00949096880
:1047600041F00801074A11601146096841F0100143
:1047700011601146096841F02001116000E000BF9E
:1047800000BF70471404024030B5034633BB4E48A7
:10479000006840F040004C4908600846006840F05E
:1047A000800008600846006840F480700860474850
:1047B000006840F48050454908600846006840F4AD
:1047C000006008600846006840F480600860404867
:1047D000406940F400403E49486174E0352B72DA8C
:1047E000581EC3B21846D91703EB5171CC10D91714
:1047F00003EB5171C910A3EBC101CDB2324800687F
:1048000040F04000304908600846006840F08000F1
:1048100008600846006840F4807008602B48006813
:1048200040F48050294908600846006840F4006060
:1048300008600846006840F48060086024484069C9
:1048400040F40040224948612846FFF707FF072C43
:1048500037D2DFE804F0040B121920272E001A4883
:10486000006820F04000184908602BE016480068F6
:1048700020F080001449086024E01348006820F408
:104880008070114908601DE01048006820F48050D5
:104890000E49086016E00D48006820F400600B49DE
:1048A00008600FE00948006820F48060074908604C
:1048B00008E00748406920F400400549486101E0EC
:1048C00001E000BF00BF30BD1404024014080240E4
:1048D00000000240704730B501460A461378521C6A
:1048E000147843EA042030BD10B5FDF74FF810BD31
:1048F00000B593B0302107A8FBF7DAFC142102A819
:10490000FBF7D6FC00BF2648006840F080502449E1
:1049100008600846006800F08050019000BF00BFAA
:1049200000BF2048006840F440401E490860084627
:10493000006800F44040019000BF00BF01200790D4
:104940000004089002200D9041050E9119210F914D
:104950004FF4D8711091022111910921129107A8E9
:10496000FEF764FC08B1FBF71DFFFEF703F808B182
:10497000FBF718FF0F200290022003900020049004
:104980004FF4A05005904FF480500690072102A8E4
:10499000FEF724FB08B1FBF705FF13B000BD0000D4
:1049A00040380240007000400348006840F4700046
:1049B000014908607047000088ED00E010B502482A
:1049C000FFF775F810BD0000EC01002010B502687B
:1049D000294B98420ED0B0F1804F0BD0274B984214
:1049E00008D0274B984205D0264B984202D0264B40
:1049F000984203D122F070024B681A431E4B984232
:104A000020D0B0F1804F1DD01C4B98421AD01C4BC7
:104A1000984217D01B4B984214D01B4B984211D090
:104A20001A4B98420ED01A4B98420BD0194B984211
:104A300008D0194B984205D0184B984202D0184B19
:104A4000984203D122F44072CB681A4322F08003CB
:104A50004C6943EA040202608B68C3620B6883629C
:104A6000054B984202D0084B984201D10B69036371
:104A70000123436110BD000000000140000400401C
:104A800000080040000C00400004014000400140CC
:104A9000004401400048014000180040001C004054
:104AA0000020004030B50C46816821F47F4142EA85
:104AB000032525432943816030BD0A46816821F0E2
:104AC000700142F0070319438160704730B50B460F
:104AD0001446026A056A25F001050562816921F024
:104AE000F00141EA041122F00A021A4381610262D4
:104AF00030BD30B50B461446056A25F01005056239
:104B00008169026A21F4704141EA043122F0A00275
:104B100042EA03128161026230BD2DE9F041044690
:104B20000D46D4F8C87204F53070D4F8D41250F899
:104B3000210010B90320BDE8F08104F53070D4F8ED
:104B4000D41250F8216005F00F0000EB800104F151
:104B5000140000EB8100406838B305F00F0000EB53
:104B6000800104F1140000EB8100416805F00F00A2
:104B700000EBC00207F13C0000EB8200C068B1FB13
:104B8000F0F200FB121080B9002105F00F0000EBDD
:104B9000800204F1140000EB8200416000231A46F9
:104BA0002946204601F02DF917E00020C6F814022E
:104BB00004F53170D4F8D41250F82100006960B1C6
:104BC000D6F8080204F53171D4F8D42251F8221035
:104BD0002A460B6906F5047198470020ABE770B5CB
:104BE00004460E4604F53070D4F8D41250F8215023
:104BF000D4F8D41250F8210008B9032070BD314612
:104C0000204600F057FFC5F80C02D5F8040204F561
:104C10003171D4F8D43251F82310CA6805F5037104
:104C200090470020EAE7000070B504460D46304882
:104C30000178204600F010FE00212D48007800F099
:104C40000F0000EB800204F1140000EB82000182EF
:104C500028480178204600F0FFFD00212548007813
:104C600000F00F0000EB800204F5AA7000EB820058
:104C7000018221480178204600F0EEFD00211E4807
:104C8000007800F00F0000EB800204F1140000EB4C
:104C9000820001821848007800F00F0000EB8002CB
:104CA00004F1140000EB8200418204F53070D4F866
:104CB000D41250F82100C8B104F53171D4F8D422CF
:104CC00051F822104868804704F53071D4F8D42296
:104CD00051F8220002F046FD002104F53070D4F8AE
:104CE000D42240F822100020C4F8BC02002070BD7D
:104CF00003010020040100200501002070B50446D6
:104D000004F53070D4F8D41250F821500DB90320B6
:104D100070BD04F53170D4F8D41250F8210098B168
:104D200095F80002FF280FD095F8012295F80002AF
:104D300004F53171D4F8D46251F826108B682946F5
:104D40009847FF2085F800020020E1E701460A208D
:104D500008800148704700007C0000202DE9F041E8
:104D6000044682210D4800F014FC054601210B4841
:104D700000F00FFC06468121084800F00AFC0746B7
:104D80000DB11020A8710EB14020B0800FB14020AD
:104D9000B880432020800148BDE8F081C000002099
:104DA0002DE9F041044682210E4800F0F2FB054651
:104DB00001210C4800F0EDFB06468121094800F076
:104DC000E8FB07460DB11020A87116B14FF4007032
:104DD000B08017B14FF40070B880432020800148A4
:104DE000BDE8F081C00000202DE9F0410446822199
:104DF0000D4800F0CEFB054601210B4800F0C9FB31
:104E000006468121084800F0C4FB07460DB110207A
:104E1000A8710EB14020B0800FB14020B88043206F
:104E200020800148BDE8F081C000002070B5044634
:104E30000E464FF4077002F0D5FC054645B9002137
:104E400004F53070D4F8D42240F82210022070BD4E
:104E50004FF407712846FBF72BFA04F53070D4F8AD
:104E6000D41240F82150D4F8D41250F82100C4F8DC
:104E7000BC02207C98BB4FF400730222504801789A
:104E8000204600F0BBFE01214D48007800F00F00E5
:104E900000EB800204F1140000EB820001824B025F
:104EA000022248480178204600F0A8FE012145482A
:104EB000007800F00F0000EB800204F5AA7000EB10
:104EC0008200018210214048007800F00F0000EBC2
:104ED000800204F1140000EB8200418232E0FFE71F
:104EE0004023022236480178204600F087FE012147
:104EF0003348007800F00F0000EB800204F114004A
:104F000000EB82000182402302222E4801782046D5
:104F100000F074FE01212B48007800F00F0000EB38
:104F2000800204F5AA7000EB82000182102126485D
:104F3000007800F00F0000EB800204F1140000EB99
:104F400082004182082303221F480178204600F096
:104F500055FE01211C48007800F00F0000EB800294
:104F600004F1140000EB820001820020C5F8040265
:104F700004F53171D4F8D42251F822100868804722
:104F80000020C5F81402C5F81802D5F8040208B9C3
:104F900002205CE7207C48B94FF40073094801788F
:104FA0002046D5F8042200F041FE07E040230548E2
:104FB00001782046D5F8042200F038FE002046E7AC
:104FC00003010020040100200501002070B5044603
:104FD00004F53070D4F8D41250F82150D4F8D4121B
:104FE00050F8210008B9032070BD207C48B94FF467
:104FF0000073094801782046D5F8042200F016FE17
:1050000007E04023044801782046D5F8042200F048
:105010000DFE0020E8E7000004010020024609B967
:105020000320704702F53170D2F8D43240F82310D3
:105030000020F6E710B5024602F53070D2F8D442EF
:1050400050F824300BB9032010BDC3F8041200201F
:10505000FAE730B503460C4603F53070D3F8D45266
:1050600050F8251009B9032030BDC1F80842C1F835
:1050700010220020F8E72DE9FC4105460C4605F515
:105080003070D5F8D41250F82160002001900090C3
:10509000804616B90320BDE8FC81207800F060004E
:1050A00000283DD020287CD1E08868B3207800F02B
:1050B0008000B8B1E288607805F53171D5F8D4C2C6
:1050C00051F82C108B6831469847E088072801D9A1
:1050D000072000E0E08807463A463146284600F0BF
:1050E00011F91CE0607886F80002E088402801D2BF
:1050F000E08800E0402086F8010296F8012231465F
:10510000284600F0DEF80AE0607805F53171D5F840
:10511000D42251F8221000228B682146984747E09C
:10512000607830B1012832D00A2813D00B282FD153
:1051300021E095F89C02032805D102226946284601
:1051400000F0E0F805E02146284600F0AEF84FF008
:10515000030824E095F89C02032805D1012201A947
:10516000284600F0CFF805E02146284600F09DF8DB
:105170004FF0030813E095F89C02032805D0214660
:10518000284600F092F84FF0030808E009E006E036
:105190002146284600F089F84FF0030800BF00BF01
:1051A00006E02146284600F080F84FF0030800BFD3
:1051B00000BF40466FE7000070B5054605F530704A
:1051C000D5F8D41250F8214001260CB9032070BD47
:1051D000D4F81402C8B90120C4F814020C480078AD
:1051E00000F00F0000EB800205F1140000EB8200DC
:1051F000D4F810124160064801782846D4F81032DD
:10520000D4F8082200F0FDFD00263046DFE700005C
:105210000301002070B504460D460026D4F8B802FC
:10522000294642682046904700B10326304670BDAB
:1052300070B504460D4694F89C02012804D002285B
:1052400003D003280CD101E000BF00BF688801280B
:1052500005D10020C4F8A402204600F064F804E060
:105260002946204600F021F800BF00BF70BD02466D
:105270000020704702460020704770B506460C4675
:1052800015462B4622460021304600F0CFFC002078
:1052900070BD70B506460C4615462B4622460021C9
:1052A000304600F0AEFD002070BD70B504460D46DE
:1052B0008021204600F079FD0021204600F075FD98
:1052C00070BD70B504460E4615460320C4F894021E
:1052D0004FF4AC700551001D05512B46324600219C
:1052E000204600F0A3FC002070BD10B50446052048
:1052F000C4F8940200231A461946204600F096FC92
:10530000002010BD70B504460E4615460220C4F8B4
:105310009402A561E5612B4632460021204600F04B
:1053200070FD002070BD10B504460420C4F894023E
:1053300000231A461946204600F063FD002010BDE8
:1053400070B504460D46E888012804D02946204659
:10535000FFF7ABFF1EE094F89C02012804D002285E
:1053600003D0032810D109E000BF0020A060012273
:1053700004F108012046FFF7C5FF0AE00122211DC4
:105380002046FFF7BFFF04E029462046FFF78DFFC8
:1053900000BF00BF70BDF8B504460E460020009067
:1053A0000027002570880012082875D2DFE800F079
:1053B000C7040C20C7C7A5B5207CD4F8B4120A686E
:1053C000694690470746C1E0207C40B9D4F8B8024E
:1053D000816A6846884707460220787007E0D4F85B
:1053E000B802C16A68468847074602207870ADE077
:1053F000B078062878D2DFE800F00316293C506325
:10540000D4F8B402406838B1207CD4F8B4124A68A9
:1054100069469047074605E031462046FFF745FFBD
:10542000681CC5B267E0D4F8B402806838B1207C4B
:10543000D4F8B4128A6869469047074605E03146B9
:105440002046FFF732FF681CC5B254E0D4F8B4021E
:10545000C06838B1207CD4F8B412CA686946904755
:10546000074605E031462046FFF71FFF681CC5B21E
:1054700041E0D4F8B402006938B1207CD4F8B41209
:105480000A6969469047074605E031462046FFF71E
:105490000CFF681CC5B22EE051E0D4F8B40240699C
:1054A00038B1207CD4F8B4124A696946904707465F
:1054B00005E031462046FFF7F8FE681CC5B21AE049
:1054C000D4F8B402806940B1207CD4F8B4128A695F
:1054D00069469047074606E006E031462046FFF75A
:1054E000E4FE681CC5B206E031462046FFF7DDFE4B
:1054F000681CC5B200BF00BF28E0207C30B9D4F8DA
:10550000B802416B68468847074605E031462046A9
:10551000FFF7CBFE681CC5B218E0207C40B9D4F878
:10552000B802016B6846884707460720787005E097
:1055300031462046FFF7B9FE681CC5B206E0314689
:105540002046FFF7B2FE681CC5B200BF00BF05B120
:10555000F8BDF088C0B1BDF8000080B1F088BDF89A
:105560000010884202DDBDF8000000E0F0880090E5
:10557000BDF8002039462046FFF7C4FE07E031465B
:105580002046FFF792FE02E02046FFF7CCFE00BF68
:10559000DEE72DE9F84105460F462C462E464FF032
:1055A000000870883178884218DD307800900FE06C
:1055B0006946204600F020F804466078052807D1A7
:1055C000A04698F80200B84200D106E04FF000086B
:1055D0007088BDF800108842EADC00BF4046BDE894
:1055E000F881014600200A4602E0431CD8B2521C52
:1055F0001378002BF9D1704710B5024610460B887E
:10560000047823440B800378981810BD70B50446C5
:105610000D4694F89C02012804D0022803D00328E8
:105620001AD101E000BF00BFE888022804D0294653
:105630002046FFF73AFE14E00020E060D4F8A40210
:1056400018B1E06840F00200E060022204F10C01B1
:105650002046FFF757FE04E029462046FFF725FEC7
:1056600000BF00BF70BD2DE9F04107460D469046D2
:1056700000240FB9BDE8F0813E463046FFF7B1FF88
:10568000022101EB4000A8F8000098F8000028551E
:10569000601CC4B203202855601CC4B208E03078F6
:1056A0002855761C601CC4B200202855601CC4B26A
:1056B00030780028F3D100BFDCE70146002031B18B
:1056C000012906D0022906D0032908D105E00020CF
:1056D00007E0032005E0012003E0032001E00320B0
:1056E00000BF00BF7047000070B505460C462DB9DD
:1056F0002246064906A0FFF7B6FF04E0224603490A
:1057000003A0FFF7B0FF014870BD00003005002086
:1057100043444320436F6E666967000002461220CF
:1057200008800148704700003000002070B5054631
:105730000C462DB92246064906A0FFF794FF04E067
:105740002246034903A0FFF78EFF014870BD000009
:105750003005002043444320496E746572666163DE
:1057600065000000024604200880014870470000E0
:105770004400002070B505460C462246024903A0AD
:10578000FFF771FF004870BD3005002053544D698C
:1057900063726F656C656374726F6E69637300002A
:1057A00070B505460C462DB92246064906A0FFF7FE
:1057B0005AFF04E02246034903A0FFF754FF0148C3
:1057C00070BD00003005002053544D33322056691F
:1057D000727475616C20436F6D506F7274000000BD
:1057E00070B505460C461A202080FBF775F9014874
:1057F00070BD0000480000202DE9F04104460D4630
:10580000164614B90320BDE8F0810020C4F8B802A0
:10581000C4F8C402C4F8D0020DB1C4F8B4520120D7
:1058200084F89C022670204600F04EF90746384660
:10583000E9E72DE9F04104460D46002600272946F8
:10584000D4F8C802FCF727FA06463046FFF735FFC2
:1058500007463846BDE8F0812DE9F04104460D4683
:10586000002600272946D4F8C802FCF7DFF90646CF
:105870003046FFF722FF07463846BDE8F0812DE9A4
:10588000F04704460F469146002F56D104F1140507
:10589000D4F89402022846D1D5E9020188420FD9F2
:1058A000D5E90201401AA86049462046AA68FFF7D8
:1058B000F0FC00231A461946204600F0B7F932E002
:1058C000D5E90210884217D1E9686868884213D385
:1058D0006868D4F8981288420ED2002211462046F9
:1058E000FFF7D7FC0020C4F8980200231A46194697
:1058F000204600F09BF916E094F89C0203280BD197
:10590000D4F8B802C06838B10020C4F8D402D4F882
:10591000B802C168204688478021204600F045FA39
:105920002046FFF7E2FC94F8A00250B3204600F0B6
:10593000BFFA002084F8A00223E047F0800120464F
:10594000FFF795FC0646FF2E1BD0D6B994F89C02B3
:10595000032816D104F52E7050F82600406980B156
:10596000C4F8D46204F52E7050F826003946426916
:10597000204690478046B8F1000F02D04046BDE86F
:10598000F0870020FBE72DE9F04705460F469046DB
:105990004FF00009002F51D105F5AA76D5F89402F1
:1059A00003286FD1D6E90201884210D9D6E9020155
:1059B000401AB060D6E90201884201D2B06800E026
:1059C000F068024641462846FFF757FC5AE095F832
:1059D000AA0200F01F0020B1012804D0022812D131
:1059E00009E0002411E040F2AE20415D2846FFF7B7
:1059F00041FC044609E040F2AE20415D2846FFF735
:105A000036FC044601E0002400BF00BF94B995F8BD
:105A10009C0203280ED105F52E7050F82400006971
:105A200040B1C5F8D44205F52E7050F82400016944
:105A3000284688472846FFF776FC23E007F07F01D9
:105A40002846FFF714FC0446FF2C1BD0D4B995F868
:105A50009C02032810D105F52E7050F824008069AF
:105A600050B1C5F8D44205F52E7050F824003946DF
:105A70008269284690478146B9F1000F02D0484616
:105A8000BDE8F0870020FBE701460020704770B5B5
:105A900004460025012084F89C02D4F8B80238B1ED
:105AA0002179D4F8B80242682046904700B1032516
:105AB000284670BD70B504460D462946D4F8C80284
:105AC000FCF727F970BD000010B5044620780128C6
:105AD0002AD11648C0F80445C4F8C802144813492E
